:20000000F8300120E1780100C1C80100C1C80100C1C80100C1C80100C1C80100C1C8010001
:1C002000C1C80100C1C80100C1C80100C1C80100C1C80100C1C80100F3C00100D4
:20003C0010B52B4C207840B940F21C520FF2C401284812F00FFD0120207000212648274C40
:20005C000170012226490A700223264A137003231372042353760523234AD371062393724D
:20007C000723237008241470092454700A220A711E49C0F8621010BD2DE9F0410FF29052D7
:20009C001B493F20136854689568D6681769D2F814C0D2F818E0D2F81C800B604C608D60C5
:2000BC00CE600F61C1F814C0C1F818E0C1F81C8020322031401EE5D1106853689468D568D0
:2000DC00126908604B608C60CD600A61BDE8F081A6AC00202440002126040021B4030021C2
:2000FC00DA03002191030021010400219D44002100800021C54000213D410021B941002188
:20011C006F430021BF4300217940002185400021E1440021F54400210F450021A9400021EE
:20013C00FFB581B003480A9D0047F8B58446024813460047437F00004551000070B51D4644
:20015C00004C2047812202007046800A054A8D2804D01047034AE432012004900249002039
:20017C0008701047696F0000F801002110B5014800470000DF09000003480449C068C005E0
:20019C00C00F88470249084740030021D1870000CD530000F8B514461A46069B009313463B
:2001BC002246FFF7BDFF009000282DD12E494868002829D009884900091B41432B48C068EE
:2001DC004408640022791820801AC6B2012080040818C70C65793146254800F00FFA2448AF
:2001FC0001228319691E8A40002018218E1B07E041000919C98879438918E9401954401CE7
:20021C008642F5DC1B4880470098F8BD10B5FFF78CFF044614490020174A4860106800889C
:20023C00000B03281DD060071BD41068C07B002801D0022815D11320C0010C4A0880D06863
:20025C00C02804D0D82804D0FF38393809D10B4800E00B4848600B48D0601821044800F04A
:20027C00CDF9204610BD00003845002128000021000000214D76000008010021913B0600A2
:20029C0029FD0300FD9000000188A24A8918032906D8A1487C210185A049416201207047FC
:2002BC009F4908479F4830B4014640310A7C022A16D10268D2794A750268936802468032FC
:2002DC009360487D02280BD0002809D0C41E062C09D89149800040184038806B181890601A
:2002FC00914830BC00470320C002C8800220087230BC0320704770B58A4804464034A57D70
:20031C00012D12D0017D4906CA0F80210A54217C00290AD1603040788008C00702D0E07CA6
:20033C00000702D50120A07500E00020A0737F488047A57570BD70B57A4C7D482546503505
:20035C008047022809D14034E1887A4A914204D1E97C890601D4911DE18070BD70B5714989
:20037C000A8908465030D2B2282A07D10A68D2684261937AD27A12029A18028303786E4A2C
:20039C00002B10D08379012B0DD1037C5B09DB0709D0097D694DC1746C7F202020436877B4
:2003BC0090476C7770BDFF21C174904770BD10B563485C4C804702280ED121464031CA88CF
:2003DC005C4B9A4208D1CA7C5209D20704D0227D920601D49A1DCA8010BD70B5514859491D
:2003FC004030C07C4009C00707D0544D56482C8B2043288388472C8370BD884770BD70B57E
:20041C00484C5249264640363579A8004018406B80470A2D214610D054310A789309DB078C
:20043C0004D0B2730A7803231A430A702189CAB22B2A01D32839218170BD5331EDE73949CF
:20045C004031087125281AD008DC0A2811D00B2811D0182811D01E2806D114E02A2810D0F0
:20047C003C2806D03D2810D0384980004018406B7047374870473748704737487047374805
:20049C007047374870473748704737487047F8B50746244C4E20005D8509EE07FB25002EE1
:2004BC0017D0267D3407240F052C03D00124204202D012E00224FAE7C00905D0700603D5E6
:2004DC004868800F012808D05B085B005208520003E0002801D02B402A40062B03D0102071
:2004FC00022B10D010E002232A403846FFF726FE002807DAC200B91A2039497E1422114275
:20051C0000D10020F8BD024303433846FFF716FEF8BD0000D5E7FFFF08010021190602004C
:20053C002506020060010021A5450200FD2C0200493B020004140000FD380200A80000213B
:20055C00FB2402004F1D020020200000C04F02002F4300210B430021DF4200218D4200216B
:20057C006742002127420021D541002170B50C48C06A0C4C0007800F0225012808D00328F0
:20059C0005D16069A843606107492015086070BD06490120884760692843606170BD000079
:2005BC00006004400011044080E100E0057D000010B5034CFFF7DAFD20680028FAD110BD3A
:2005DC00001104400B490A78FF2A04D10A4A927D1207120F0A7008494031887570470549FB
:2005FC000978FF2905D00009000108430249403188757047A50200210062084003B401482A
:20061C00019001BDDD89000000000000000000009E60EE2DCE2DC22D540FEF2FEF0F975F91
:20063C009D170050A0058004407F00402801080F00080004FF034040202E00000300130040
:20065C0010002100220032003100430040005000530062006100710072005F0060005D00E0
:20067C005E005B005C0059005A005500560057005800CC00C3003C0033000000010002003B
:20069C000300000400081800080003001A000A002C0011003E000300080018001A0011001F
:2006BC002C000A003E0000400C00000088140900F905010000808B008000500F00001D0AA9
:2006DC009005000005000004207BC10000000F00277F7F0100800C00000098140900F90590
:2006FC00000000808B008000700F00001D129005000005000004207BC10000000F00267FF7
:20071C007F0100400CA00C0087030300CD4001050080EE018000700600001E0900055600BE
:20073C000C0000001450500000001F007F7F000004887F7F7F2C00000000000000009F00EC
:20075C004040202E030C90FD3C7800000D720E720F7210725DA3E5A4D567D0B00071D0A037
:20077C0010B11B7262812010623930062000301601110114016CC160CA60F1603B61C160D8
:20079C00CC60D8614B62C160D260F16063612012C2601012117312731373B1811000B0913B
:2007BC0070B0A560B1C4D36091C7BC78FBC102C340C5D76021C6AC78FBC502C360C420181B
:2007DC00136F236E11161216D868EB948C9C7081001EC14430C0B092F0C1D09232C6C0C9DA
:2007FC002018EE400312236E1216EB6800839099C16005B0917200C1F09128B120B113B121
:20081C0011B1E8B0007128B1E8A030B210B9808C309911B1A284B484F3C0D1B0007112B089
:20083C0002B011B1D1A091722C7230B613B003B0E0B0007120B17081C0929081409600714D
:20085C0020B1C3924296007120B14496007120B1E0A030A633B6D3B0007113B1D3A030C0C6
:20087C00109920C03099D1B0007111B1D1A0917203A002A06372057306739173917230A2FE
:20089C00C0C71090C1608C65BC65C365007110A9937310B94F8B6F318F3D0F721373000074
:2008BC00000074B031B25DB30F97E5A444A064B0CD67B1C2E267F322564500711F97A3C0B4
:2008DC003399179135A2007178B043C2D1673B4530C0F467C1608C656078BD65F0C567697F
:2008FC00C365D5B015B131C0007190805022CD4574B010A9937310B90F72137331B2D5A068
:20091C005DB3408B20390097E5A444A064B0CD6734B261C2E267F3228645007178B0A3C20B
:20093C00D16740C0F467C160B084A095709980890E10A0849095709980890E1480C00E186B
:20095C0080C00E185183813921396106311600111014006C1E311E318E318E392E97408233
:20097C003022AF45D5B0007115B1D5A0A76100C1E09110781099E7139A78E5B440C510902F
:20099C0002B004B006B00070507850903090707860904090007035B26CB011B089B0E5B499
:2009BC00D1A0D0A03DB1FDB00070319A438A548A3331633D3431643D9396A49653B06A617E
:2009DC00117312731F7291727081C0929081409650C0F4675CC11DC37EC008C0E8B00071BD
:2009FC0028B1E8A030B210B9808C309911B1D1B00071D1A034B6E1B002B012B003B013B070
:200A1C0021B10071E1A034A630B613B1D3B020B1E0B0A484F0C04F103C661439036AB484C3
:200A3C00F0C04F103C661439096A948C40C04F103C6614390F6A948C04222146DF813C6693
:200A5C00108210221C42166230C00FC03C661D6A2E625DC31EC0DF813C6610821022294239
:200A7C00216230C00FC03C662A6A2E62E1A030C0109940C0309911B1D1B00071D1A0917247
:200A9C0003A002A02372C1601F063F318F14CF14F26F281048393206D214236F007120B118
:200ABC00CE924396007060C0F46790890093657200DB60961DB300C1E091C0C02093907B62
:200ADC00509700C1B1C3D2C7136F236E111612165C6AA5677867408230226D46D5B0007175
:200AFC0015B1D5A0636270C0F46735B24078018001000190109050783090509080784090CD
:200B1C00609020DF809372B0E5B4F0B33BB62078109980C0F46793730CB14CB13DB1FDB031
:200B3C000FB14FB108B0007108A014B914A94CB110A91E79007110B94F89C080C022EE47C8
:200B5C00F0228946FDA0107244A064B074B031B230B232720F7248A049A04AA009A000C24D
:200B7C00309911B1D1B00071D1A0808720221347E7B0F0C127B10071B26A4FB0E5A41DA3D3
:200B9C0073B0C0C020934BB041B090C0F4678381031EBF425B894089B0180C103C062039FA
:200BBC003331031820C30318339910A93078109911B110B9D1B0F322FC460A838A395A3980
:200BDC006B863B315086803950390B000412007190801022FC460183528663863ABA258B85
:200BFC0085312531541CF942F24AA114B214F65E1316F662A118B218F65A131A019352961A
:200C1C006396541027B1DF6233B250B7D4789497C478A497E0C060B7036BD1A02372A37327
:200C3C00F48AA0D0149AF467E7A003720472057306739172C160E5A4D0C03099FE1C1A47BD
:200C5C00A0D61C6390D60000809373B072B04BB0A07B5097E7A011B1D1B0B3B100716FB00A
:200C7C004FB04DB041B0C0C0209339BAF08A1031009760B9937300CF346B1AB00AA0B0C082
:200C9C00F4678381031E39435B894089B01833310318E0780318339910A911B110B9F322B0
:200CBC006447A089A189101C4A43E7B027B150B701120071A0807022604327B1111E5A436E
:200CDC0011165163A0899097B089A09760B70112908010225143E7A033B24DA050B7F47891
:200CFC00A49704799497E0C060B76C6BD1A02372C0C0F46703720472057306739172C16086
:200D1C005CC10DC00AC008C070C0AE84DBC2B76F9667806B1B16B76F70C00AC09667866BEF
:200D3C00BE841B16B76F70C00AC096678D6B1B16B76F70C00AC09667936B0070EF101F062F
:200D5C003F318F14CF14F26F2810483932062A001A3F1A3F7A6E1E3900705CC10DC008C0F2
:200D7C00E0C0AE845BC2EF101F063F318F14CF14F26F281048393206B747CACCC063121E15
:200D9C00BB473ACCC063221EBF47CAC3C0633AC30022C443A610C963B76F8A316A007A6EDB
:200DBC001B161E39AB6B64B000708381031ECD4300703399179100715DA3237291739172CF
:200DDC0003720472637230C00090C0FF10900573067300705B894089B018233103181318E8
:200DFC00339910A911B110B9D1B0007014B914A94CB110A92E799262009AF0890022F5478A
:200E1C00E0B900702DE9F843DFF8A481694988F80000002008600921674801700D2141806D
:200E3C004FF488718180654865490860654966480A780270FF2A4B78437008BFFF2B8D78B1
:200E5C008570CE78C6700F7907714979417114D1FF2D08BFFF2E10D1FF2F08BFFF290CD1B1
:200E7C005A490A7802704A7842708A788270CA78C2700A7902714979417155490278554DBF
:200E9C00554E564F0A7042784A7082788A70C278CA7002790A7140794871FF2028706870A1
:200EBC00A870E8702871687100204D490880706B4C4940780870706B01784B480170706B23
:200EDC004A4980780870706B4069017948484A1E0270706B4749C0783870706B8069086014
:200EFC0008B91BF0E9FE706B434CC069206008B91BF0E2FE2068DFF80491016888472168AF
:200F1C0051F8042F484690473D483E49C9F820003D48C9F82400706B006A086008B91BF004
:200F3C00CBFE706B394C406A206008B91BF0C4FE706B3749806A086008B91BF0BDFE0EF082
:200F5C0051FE07280CD113F08BFA98F800004FF480410FF043FEBDE8F24300201BF0ACBE4F
:200F7C002C480168884721680A6881469047226852F8041F00208847F068274A0188387828
:200F9C0001431180484625490A6890470C2124481DF056FA28461DF04FFA1DF049FA98F881
:200FBC000000BDE8F4434FF400510FF017BE00BF6E3F0120043F0120603E0120B63F0050DC
:200FDC00083F0120D04F00502C3E0120E81200503C3E0120343E0120B01A02006C3F012083
:200FFC000C3F01206D3F01207B3F01206B3F0120723F0120F03E0120F43E01207C3B0120AA
:20101C0065D80100F83E012085D80100FC3E012070AC002008010020543F01200C01002020
:20103C00F83D01202DE9F04FADF1340D01F01AFFB048B14E4FF00009C846DC380890B068EF
:20105C0049464FF040424FF0FF3304F0CFFC0028F5D04846059007A905AA06A816F016F8C3
:20107C000446B7A0002C0B9040F012819DF818000DF11A0119F05CFD002840F00681BDF86D
:20109C001A00ADF818001BF053FD002C40F00081BDF81800102840F0F68030789DF81C1011
:2010BC00884240F0F080059C20884FF6FF71814200F0C5802078913825D01F3803D02038DC
:2010DC0000F0B980DFE020797E2807D07F2814D1208940F21D310122ADA304E0207A4FF40D
:2010FC0046710322AEA300904F4601974D460295039704950B980DF015FB217904F1080046
:20111C001DF092F9BFE060780E3861D0401E33D0401E00F08B802E3840F0B580A0780C285C
:20113C0040F0B180E778AFB9E079012804D002280CBFB5A0B5A000E0B6A0009048464F468D
:20115C004D4601904A46029740F25D410395B2A304920BE048464F4600904D4601974A467A
:20117C00029540F254410392B7A304970B9801220DF0D8FA0C2027E0A08842F23201814251
:20119C0040F08180A0781A280CD0009048464F464D4601904A46029740F23B410395AFA334
:2011BC0004920BE048464F4600904D4601974A46029540F236410392B0A304970B9801229B
:2011DC000DF0B0FA42F2320021460FF081FB5AE0A168A788087841F20542BF1A0CD0A7F646
:2011FC002B47002F4FD100284DD1C87800900879AEA340F214510DE0002844D1A06890F9D8
:20121C0003104942009181784078C1A300EB012040F20A5101904F4602974D4603954C4659
:20123C0004940B9801220DF07DFA2CE00820494607F096F827E0204602F090FF23E065889A
:20125C004C460120A040054219D0BF4FB5FA85F03421C0F11F00C0B210FB01F0385A0090C8
:20127C004B4601934A46029249460391CDF810900B98B9A301224FF4A7610DF053FA641C4A
:20129C00E4B2082CDDDB059810B105981CF053FDF0681CF0DDFB00287FF4D1AEF468204641
:2012BC001BF0DCFD844208BF4C4602D0846819F025FC251CECD02F786C68082F03D9103F4D
:2012DC0000F0138326E3DFE817F0F5015C013201FB0073004400190009002103C1491020DD
:2012FC0008F0CEFE082880F0158348460090BC49727848E038780020C87600206968086832
:20131C00401E17D0401E0FD00E3840F0038348680178BAA3009140F29441408801904F4627
:20133C0002974C4603949CE14868BDA34FF4906100784EE04868BFA340F27B41F8E7C04683
:20135C00247B496E70757446696C654E616D657D00C06C68A778002F0CBFC3A0C5A000903F
:20137C00B94801904F4602974B4603934A4604920B9840F2ED41C1A301220DF0D3F9B248F7
:20139C00CB490090228810204B4608F079FEC1E24D54552053697A653A20256400C046C0B6
:2013BC0046432056696F6C617465643A20256400686801790078002842D0401E35D0401E90
:2013DC0016D0401E40F0A68261B940F2D541C7A3484600904F4601974C4602944A460392F1
:2013FC00049737E20091C6A340F2D941484695E7002904BF40F2CA41C7A3E9D00091CBA382
:20141C0040F2CE41F2E7C046324D00C0434F44454400C046314D00C0504859205570646113
:20143C0074656420746F20257300002904BF40F2BF41CEA3CCD00091D0A340F2C341D5E777
:20145C0040F2B941D2A3C3E7504859204368616E6765206661696C75726500C050485920F5
:20147C0055706461746520537461747573204576656E743A203078257800C0465048592071
:20149C004368616E6765206661696C7572652C207065657220646F6573206E6F74207375A6
:2014BC0070706F7274207468697300C0525850683A2025642C20545850683A20256400C0AB
:2014DC006C6820780D2814BFB5A0B8A06778002F0CBFB9A1BDA100900191484602904F4667
:2014FC0003974B4604930B98012240F29E61BCA30DF018F927780D3F16D07F1E40F00A8280
:20151C0001200146641C224605F0EEFE02E2C046525353493A2D25642C20636F6E6E4861C0
:20153C006E646C652025640048460121EAE7278841F2101022463F1A08D0103F40F0EA813D
:20155C0020796188641DDEE7B078002010795188521D0AF0B5FDDDE1436F6E6E65637469F1
:20157C006F6E206576656E7420646F6E6520666F7220636F6E6E48616E646C653A20256406
:20159C0000C027880FF2D82CBAA2C0A1B7F5895719D0103F40F0BE81B4F8050040B1401ECB
:2015BC0004D0401E08BFCDF824C002E0099200E009912079012840F0AD81099CCDA0D1A7CC
:2015DC0040F2777147E0B4F8050068B1401E04D0401E08BFCDF828C007E00A9205E0C04672
:2015FC004913010049AF01100A91277977B37F1E40F09081CBA74FF4E3612AE041647620E8
:20161C005365742025642064697361626C656420616674657220636F6E6E20256400C046D2
:20163C00416476205365742025642044697361626C656400416476205365742025642045D1
:20165C006E61626C656400C040E20100C8A740F20D71C9A00A9C0090019702944B46039312
:20167C00C9A34A460492F5E0446973706C6179696E6700C053656E64696E6700426F6E64C8
:20169C004D6772205265717565737465642070617373636F64652E2057652061726520251D
:2016BC00732070617373636F6465202530366400C9B10100278841F210103F1A00F0938041
:2016DC00203F40F027812779002F3AD07F1E40F0218160790090A0790190E079B1A34F461A
:2016FC0002904FF4E9610397BBE7C046426F6E642073617665207375636365737300C046FC
:20171C00426F6E642073617665206661696C65643A20256400C046C0456E637279707469DF
:20173C006F6E207375636365737300C0456E6372797074696F6E206661696C65643A2025A8
:20175C006400B5484946282213F0A2FCB248641D2722214611F07EF9AF4C83A765A040F293
:20177C00417100909EA301974F4636E650616972696E672073756363657373005061697212
:20179C00696E67206661696C3A20256400C046C050616972696E67207374617274656400A9
:2017BC00427574746F6E203100C046C0427574746F6E203000C046C01B5B33336D72656C5C
:2017DC0065617365641B5B306D00C0461B5B33326D707265737365641B5B306D00C046C0BB
:2017FC00257320257300A178089A601D102313F0C1FF2379671D0FF2042B0FF2042A002BA5
:20181C004DD05B1E40F08680824A52A0009054A301930292494603914B4604930B98012262
:20183C0040F2D9616EA30CF07DFF70696279072118F030FC3F7807B1D34642A000904C46FB
:20185C00CDF804B04F4602974B46039440F2E16104936CA30B9801220CF064FF5AE0C0461E
:20187C00496E6469636174696F6E7320656E61626C6564004E6F74696669636174696F6E05
:20189C007320656E61626C656400C0464E6F74692F496E642064697361626C6564005D4BE4
:2018BC002CA0009025A401940293CDF80C90CDF810800B9840F2CA61012249A30CF032FFCB
:2018DC0070693A78062118F0E5FB3F7807B1D34616A00090CDF804B04F46CDF808804C4697
:2018FC00039740F2D2610494B3E70820494606F037FD0FE044617461205365727669636560
:20191C0000C046C053747265616D00C06868008811F0C6FE686808B119F0F0F8284619F0AB
:20193C00EDF8B5E4425554544F4E31001B5B33316D4C4544301B5B306D00C0464C45443096
:20195C0000C046C01B5B33326D4C4544311B5B306D00C0464C454420536572766963650078
:20197C004C45443100C046C0537472696E6700C0425554544F4E3000427574746F6E20534D
:20199C0065727669636500C043434344204368616E6765206D73673A2025732025733A200F
:2019BC00257300C056616C7565204368616E6765206D73673A2044617461205365727669EC
:2019DC0063652053747265616D3A20253032783A253032783A253032782E2E2E00C046C07C
:2019FC0056616C7565204368616E6765206D73673A2025732025733A202573006F6666002A
:201A1C006F6E00C05475726E696E6720257320257300C0465C770020387800202DE9F04F98
:201A3C0085B0804611F8010BDFF89437182808F1FD0208F1E70508F1660A08F20D1B08F533
:201A5C00B07408F1860908F59C7608F5C67700F2A583DFE810F01900700072018D00A30365
:201A7C00A303F4007E0306011C01F70003014601A303A3038F01A303740169018A03E102F8
:201A9C00E1023902A303840211F8010B89F80000022208F188001CF0C3FC0146022208F176
:201ABC008A001CF0BDFC0146022208F18C001CF0B7FC0146022208F18E001CF0B1FC99F8D0
:201ADC000010B9F80220490089F800105200B9F80410A9F802204900A9F804100222B9F880
:201AFC0008100901A9F80810014608F184001CF097FCBAF81E10B8F80800091A89B247F659
:201B1C00FF7291422BDAB9F80600B9F80410B9F80820401C49004843904203D33B208BF855
:201B3C000B0083E201208AF81C000020A8F81E000120307041E3052208F161001CF070FC9E
:201B5C000146022208F192001CF06AFCB9F80C10B8F80800091A89B247F6FF72914280F22B
:201B7C002982012189F80A100020A8F81E0051E2A87DC20708D41A21687BA973012808BFDC
:201B9C000D213AD00D21E4E100208AF8000008220120687408F1A80408F1B0001CF040FC9F
:201BBC000146022208F1B8001CF03AFC0146082220461CF035FC0646082120461CF02CFC88
:201BDC0008F19C040422314620461CF029FC042120461CF021FC08F1A0001CF019FC08F1B5
:201BFC0098001CF011FCDFF8DC05018841F080010180687B012806D10421404605B0BDE8BC
:201C1C00F04F18F0F5BD9AF811500F2D18BF142D03D00E2D18BF0C2D0FD19AF81040404602
:201C3C0015F032FC0421404614F0BAFB012C12BF29468AF81A50FD218BE1042189E101205E
:201C5C00E873BAE200208AF800008AF8060028700B2101206873002068707AE10120287477
:201C7C00ABE2002003F109040D5C245C25430D545C1C245C25401554401C0828F2DB9AF837
:201C9C000600002846D0404614F042F88BE2002003F109070E5C3F5C3E430E545F1C3F5C91
:201CBC003E401654401C0828F2DB02206875E87D010703D440F64800A081E081587881062D
:201CDC00CED520891B2804BF61891B2907D1A089B0F5A47F04BFE189B1F5A47FC0D01421E4
:201CFC0037E19BF80000012811D011F8012B8BF8032008F5897002221CF092FB014602221A
:201D1C0008F58A701CF08CFB01208BF800009AF80600002800F087819BF8021000291CD106
:201D3C00404613F079FC3EE2A87DC10601D41221CFE0404616F07CFC35E2097874E1087855
:201D5C002070487860709AF8100001280CD19AF811100F2902D0162902D02EE270732CE2D0
:201D7C00387B40F0010017E205B0BDE8F04F00201AF0A2BFA87D820707D410F0110F08BFD6
:201D9C000F2000F00B821A2251E008784A7800EB02203082CA78887800EB022070824A7909
:201DBC00087900EB0220B082CA79887900EB0220F082087A30768A7A487A00EB0220708396
:201DDC000A7BC87A00EB0220B0838A7B487B00EB0220F0830A7CC87B00EB022030848A7C08
:201DFC00487C00EB022070840A7DC87C00EB0220B084487D897D00EB0120F08408F5AA7094
:201E1C000490708B0390307E0290B8F808000190F08A0090B38A728A318A404612F0BEFFB8
:201E3C0060B1A87D410701D40F2152E01E22404605B0BDE8F04F0F2118F0F6BC708AA9F8ED
:201E5C000400B08AA9F80600F08AA9F80800022089F800000020A9F80200B8F83400C01D37
:201E7C00AAF81E00B8F83210B9F80400884202BFB9F80600B8F83410884202BFB9F8080065
:201E9C00B8F8361088421DD09AF81000012804BF9AF811100F2907D09AF8150020B10F2181
:201EBC008AF81A10FE2154E0FC21404614F078FAF08A0090B38A728A318A98F806001CF04E
:201EDC009FFA7AE1102144E0E87D10F0090F03D116218BF80C1063E148780A7800F00700F9
:201EFC0002400A7008787A7B0240FA7210D0501E02420BD0510704D5B87B10B10421F972C5
:201F1C0004E0022002421AD14008FBD1F87A08B9B97AF972F87A042803D1404616F0B0FBE2
:201F3C00A083F87A1CF068FA3871A28BB97B012317F0FEF90146208B884202D207E0F87275
:201F5C00E4E7A28BB97B3879012317F0F1F978801721404605B0BDE8F04F14F021BA487885
:201F7C000A78824207D100F00700104008702ED0431E18420FD01E221821404618F054FC79
:201F9C0098F80610002300221E2010F087FB387B40F0400000E1F87247F6FF728878C9781D
:201FBC0000EB012038813989B8F80800091A89B2914201DB282137E00120B871F87A042871
:201FDC0003D1404616F05CFBA083F87A0BE09AF81100162806D1BA7A98F8061013460020A3
:201FFC0010F05CFBB87A3871A28BB97B3879012317F09EF90146208B884205D3A28BB97BCA
:20201C003879012317F094F978800121387B40F0400038733170D0E00646142E04BF9AF81F
:20203C000600002806D13D218BF80B1001208BF80A00C2E008784A7800EB02206082CA78C0
:20205C00887800EB0220E0824A79087900EB022020828879C97900EB0120A082A18AE089FD
:20207C00884288BF0846B97A042905D140F691229042B8BF4FF42960E28BE0839042B87ADD
:20209C0014BF01250025042803D1404616F0F8FA04E0A089E18A884288BF0846A28BA08361
:2020BC00904214BF012100210D432089618A228B884288BF0846904214BF012100210D43F4
:2020DC002083A28BB97B3879012317F031F90146208B884205D3A28BB97B3879012317F009
:2020FC0027F978806189208A628B814288BF01466183914298F8063014BF01200020054301
:20211C008A4231490A6802EB4311628B8041121DC00F0A7610B1404619F016F8142E0ED1FF
:20213C0045B1E08B0090638BA28B218B98F806001CF05EF91521404612F0A1FA33E01DB198
:20215C00387840F008003870397841F02001397033E008780E280ED00F2809D0122804D062
:20217C0014280BD0162811D027E00020307224E00120307321E0032068751EE0387840F09D
:20219C000200387040F01000387016E0387B40F00200387340F0100038730EE08BF80C00A3
:2021BC00404615F071FD40B905B0BDE8F04F074800784FF480410EF011BD05B0BDE8F08F08
:2021DC00D4AB0020523F01206CAC00206E3F01202DE9F84F012018F031FE012819D1DFF8ED
:2021FC007866307800210FF021FE5FEA000804BF00201AF061FD002088F8080008F10400BD
:20221C0014F084FE06F06EFF050003D181201CF0EBF81CE301206871DFF840064178491C1C
:20223C004170A879DFF8381688F80A003078087040200FF043FB2860D8F854104A78D8F8F6
:20225C005000D1061ED5816A0A681179032904D00CBF012000201AF02FFDD8F85000816A14
:20227C0090F84C000A6802F1080401281CBF00201AF022FDD8F850102A68486D00F5B06034
:20229C00D06031E0C16E0A681179032904D00CBF012000201AF010FDD8F85000C16E90F8BC
:2022BC0098000A6802F1080401281CBF00201AF003FDD8F85010D1F8A0002968C86094F8ED
:2022DC002620012A04D00CD3032A07D003D308E000F5347007E000F5355004E000F6B87000
:2022FC0001E000F5B060C8602078DFF87865DFF878B505F59779C0F3801089F8000006226E
:20231C00A11C05F594701AF0ADFF042204F10E0105F124001AF0A6FF3068AF7900F10C037D
:20233C00042204F10E0103EB47101AF09BFF3068AB7900EB4310032204F1120110301AF0FD
:20235C0091FF05F12C07607DB870022204F1160105F130001AF086FF022204F1180105F196
:20237C0032001AF07FFF022204F11A0105F134001AF078FF38896884022204F11C0105F1CF
:20239C0036001AF06FFFB878F9887A894000B8704900B88840001201B880F9807A8189B294
:2023BC006B8C5B1C4800434392B2934200D231B99BF8000080210EF011FC3B2154E105F12A
:2023DC002E0128461AF09EF90520A88128461AF08FFC052204F11E0105F161001AF042FF75
:2023FC0094F82300400938701BF0FAFF6882B8F82A10401AA9F80C0005F1610194F823003B
:20241C00DFF8684400F01F00F8734FF01C09284617F0E0FBD8F854104A78D8F85000D10602
:20243C004CBF816AC16E41F62102086800210171A979206819FB01F142520022A97919FB62
:20245C0001F101444A80A97919FB01F108444260D8F85410DFF818044A78D1060DD5DFF8D0
:20247C0014148A7851060AD5DFF80C140A8841F20A439A4208BFDFF80404C5F89C01D5F82E
:20249C009C11284688472168AB7901F10E0219FB03F3D054A979206819FB01F1084400213C
:2024BC00C173DFF8DC03017889B1B88878B9002179730120288168812846D5F89C1188477B
:2024DC002168AB7901F10E0219FB03F3D054A879216819FB00F001F10E02125C7A73D8F828
:2024FC0054104A78D1061DD595F8960108B91AF0E3FBA979206819FB01F1084495F89611D4
:20251C004A1E0274A979206819FB01F10844002141742068AA7900F1120119FB02F2002018
:20253C0088522DE0D8F85010236891F8402018440274A979206819FB01F10844D8F85010F6
:20255C0091F841204274D8F850002168AB79403001F1120219FB03F34188D15201210078EC
:20257C0000F00300814085F89611D8F8501091F84000800805F5CB7114BF01200220087121
:20259C002168A8793368DFF8FCA201F1140219FB00F103EB40105050A979206819FB01F1CA
:2025BC000844B9498161DAF814000078D6F800C095F806E0C107DAF8141009784CBF1020F6
:2025DC0000208A07DAF8142012784CBF202100215307DAF814301B784CBF402200221B077D
:2025FC004CBF80230023084310430CEB4E1C184340F00F008CF808000B223068A97900EBF7
:20261C00411042723168A87901EB401104229F488A720178012906D13268A87902EB401126
:20263C000122CA7207E0DAF828003168AA79407801EB4211C8723068A97900EB41101F221A
:20265C0002763168A87901EB401100224A76A8790DF046FDAA79316852018850AA79316809
:20267C005201885820B90721284619F086FFEEE08748AA79016801EB02101BF0ADFE844B62
:20269C00A87931681A6801EB401102EB00104860A979306800EB41125168F963AA7952017D
:2026BC008158796404219BF800000EF097FAD8F8540041782268C80648BF02200AD4A879A4
:2026DC0019FB00F01044007C00F00300022814BF04200620B988DFF8A8C143189CF8000060
:2026FC0010B109B9F8881B18688A95F806C058434FF4C871B0FBF1F0401C19FB0CFCAB611C
:20271C0068616244D5F800C0DCF80CE040F6C41101FB03E31B1AA3F5A8639360AA7920687E
:20273C0019FB02F283189A682B689A6000F10C03AA7919FB02F20C309B5C03F0EF03835431
:20275C00A879226819FB00F002F10C030C321B5C03F07F031354A879226819FB00F002F179
:20277C000C030C321B5C03F0F00343F002031354AA79206819FB02F21044427B02F0F0024C
:20279C0042F001024273AA79206819FB02F2024490682A6810613068AA7997F802C000F142
:2027BC00140368694000520111FB0C0000F5F660985095F8960104280DD13068AA7900F15D
:2027DC0014034FEA421C143053F80C20AB795B0102F5B062C2503068AA7900EB4210C37CA2
:2027FC0003F0F00343F00403C3743268AB79DAF83000006802EB4312FB885943091AA1F524
:20281C001671D161A879316801EB4010C17E01F0F00141F00401C176A979206819FB01F9A7
:20283C002968484448600E21284613F0B9FD19490720087040461AF051FEAA7900214046B7
:20285C0015F0A6FE28681449416114498161BDE8F14F03F0B1BF00BFA9AC0020683E0120A2
:20287C00AAAC00206CAC00206E3F012068AC0020E7810100D4AB0020503F0120CD76010090
:20289C00783E0120B01A02005C3D0120733F01208C3E01206F3F012081A301000204808007
:2028BC002DE9F04FBB4CADF1240DDFF8E48220780591C90BCF032CD10599A069C90811D268
:2028DC000598000938BF0020C0F0C482A07B012804D14146087808B910F072FF059880F0CA
:2028FC000800B6E288B11AF0CBF9071C0DD0F87A58B938461BF034FA7A68B97A388909F00C
:20291C0009F8786808B11AF0AFFF059880F004009FE210F00FFD0028069000F09782054699
:20293C00012007902878B03800F0EF81401E00F0E2811F3840F07D82A978606900270A2960
:20295C000FDC0A2900F0B180002900F0A681491F00F09B81491E00F06B81C81E00F054817A
:20297C00C7E10B3900F08B80C91E7ED0491E0DD0481E40F0BE8122781AF082F9002800F0CF
:20299C005581104604210EF029F94FE128B143681BB1A88839460A4698476078002861D01B
:2029BC00A88817F07DFE061C00F0A381A87A40080CD3707950B1012808D0E868800A05D22E
:2029DC00B01D394612F010FF002846D1207A022802D1A87A000940D3B5F8048076790C201E
:2029FC001AF032FF05F10809051C00F01F81A5F80880AE7239462960B9F1000FEF7209D088
:202A1C00484608211AF0ACF9686020B928461AF02BFF0BE16960A369002B08BFA56102D066
:202A3C001A68C2B91D60002D00F0008128461BF097F94A463146404608F06CFF6069002878
:202A5C0000F0F4804368002B00F0F080394640460A469847EAE01346E2E7A88803211BF041
:202A7C00B7FC46E1A88805211CE0002800F0DE804368002B00F0DA806A780221C2E01AF0C7
:202A9C00A3FE002800F0D280606948B107683FB12869009069892A7B6B7BE81CB847C5E0A8
:202ABC00688907991BF094FCC0E0B9466F78002F40F09A80A9794908C0F0968001A849465E
:202ADC000E221BF0BEF9A88817F0EAFD071C09D122781AF0D5F8002866D0104604210EF085
:202AFC007DF861E06E69002E56D0B0464946062208F111001AF09BFACA46C0B13046062264
:202B1C001AF095FA78B908F1110B4E46761C58464946F6B28BF8006012F066FE10B9002E7F
:202B3C00F4D100E01EB94E46DDF81CA06E61BAF1000F09D108F1110101A806221AF092FB02
:202B5C0098F810008DF80A00BAF1010F24D0686910B30646307C062206F111018DF80A002F
:202B7C0001A81AF07FFB787906F11108012805D107F10C00B91D06221AF074FBB81D414635
:202B9C0006221AF06FFB307C40F0020078710BE05A3F0120648400207879B91D06228DF895
:202BBC000A0001A81AF05EFBA8799DF81110C0F3800008438DF81100A879000905D39DF861
:202BDC00110040F008008DF8110001A8294606F071FB5FEA000903D1A88816F0D1FA02E077
:202BFC00A88818F05BF8606900B34368F3B1A8886A7807999847B9F1000F17D06069032145
:202C1C004A464368A88824E7281D0DF1130112F0EBFD58B99DF81310062005F10C0211FBE2
:202C3C0000F025300421C0B20AF084FF079F60E0A88818F033F81BF0C7FB002859D1E07A5D
:202C5C00012814D0207B01280DD0844C3D4614F8010F012803D128460BF058FE27706D1C5F
:202C7C000A2DF4DB0CE013F0F5F8277308E01AF02AFC394604F120000A22E1721BF0E1F8AD
:202C9C0018F06AFF15F0AAF833E0687888BB6A892B7B291D0DF0BCF92BE0687848BB1BF040
:202CBC008FFB81461BF088FB80461BF081FB8DF8120010214A4602200AF03CFF03201021C9
:202CDC0042460AF037FF079904200DF112020AF031FF9DF81200012803D09DF812000328AB
:202CFC0007D1079818F03AFB0246062001460AF021FF07979DE02879002840F09A80688817
:202D1C00E9882A8915F054FB93E02879401E40D0083802D074387FD086E068781A2877D0C1
:202D3C006888804619F09EFC801E18D0401E7BD1288901280AD16889032807D1E9688A78F2
:202D5C004046042115F0DCFD024600E018226069002869D04368002B66D0042116E0298969
:202D7C006888079A0129804609D16989032906D1E9688F781FB9102115F0C2FD02466069B1
:202D9C00002851D04368002B4ED00521404698474AE0297A688805F108060829824637D18D
:202DBC0019F060FC801E12D0401E31D1287B0A2818BF122205D168890421002215F0A0FD22
:202DDC000246606920B3436813B304211EE070881021002215F094FD8146504617F060FCBE
:202DFC0070B141460F784FB94179079A871D01F00101084639461AF000F901E00798A0732B
:202E1C00606928B143681BB105214A4670889847688816F0B5F907E06C88204619F022FCE4
:202E3C000146204615F004F8297905F108001BF0FBFA079838B90A480078FF2806D0069932
:202E5C0019F0B0FC02E0069819F09CFC059880F4004080B209B0BDE8F08FC04683840020F3
:202E7C009A8E00202DE9F04FADF16C0D1AF000FF15F0E2FD061C00F023821AF0A4F8924A5C
:202E9C00002132F80C7F002F40F016824FF6F877178056608D4C2170002595607168A160EA
:202EBC001AF0CFFA04F158063046294618F004FF04F1700004F17C01E66010F013F96061F6
:202EDC0070B928460090019040F21721029003220390C2A30490BCA00BF024FC10F074FA8C
:202EFC0004F1640004F1880110F0FCF8206178B928460090019040F21E21029003220390EF
:202F1C00BFA30490B0A00BF00DFC10F05DFA2069CE491AF0C9FD70B12846009001904FF491
:202F3C000971029003220390BDA30490A6A00BF0F9FB10F049FA0D20C54E009032222B46B0
:202F5C00314604F5947015F0E9FDA06132222B460E203146009004F5A67015F0DFFDE061CA
:202F7C002A46152304F1DD00D2490090102007F087F802202A4605ABD449ADF81400102022
:202F9C0007F07EF801208DF8660003468DF86700CF4E8DF868504FF4806219468DF869108B
:202FBC000DF1660000901020314607F069F80DF1670040F20242012300903146102007F0D5
:202FDC005FF81AA840F20342012300903146102007F056F80DF169000090314640F20642BD
:202FFC000123102007F04CF8BA4910204FF0FF3207F046F8B84910204FF0FF3207F040F87E
:20301C001026DFF86093D848D84A0096132349460190304607F034F8DFF854A33046052361
:20303C004946D44E00900AF10C02019607F028F8A8462E46C1B20520009001220191A7A3F3
:20305C00029561A00396D721CDF810800BF06AFBC94E94F800B0307880001AF0CCFEC74D13
:20307C000146E96029B3F81D17F02EFD307880001AF0C1FE01462961D9B1F81D17F024FDF8
:20309C00BF49102005F11402009007230191494606F0F6FF0720009040460190FF2102908A
:2030BC00012203909AA3049047A00BF03BFB85F800B0307894F8009080001AF09CFEB14E41
:2030DC000146F16001B303E040010020C8760020F81D17F0F9FC10200090AB490191A149A5
:2030FC0006F14C02062306F0CBFF0620009040460190EB2102900122039085A3049032A0D7
:20311C000BF010FB86F8009004F14000CAF808000FF2B40900900FF21C2AE621CDF804809B
:20313C000122CDF808805346CDF80C804846CDF810800BF0F7FA04F14800A86045460090EA
:20315C004FF4887101950122029553460395484604950BF0E7FA04F15000B0600090FC2191
:20317C0001950122029553460395484604950BF0D9FA0DF116002822414611F089FF834983
:20319C000DF13E0028220FF065FC01210DF11602404608F095FF01200DF11602014608F06D
:2031BC008FFF01210DF11602404604F09DF801200DF11602014604F097F828210DF13E0296
:2031DC00404604F09DF945E0247B496E70757446696C654E616D657D00C046C04572726F13
:2031FC007220696E697469616C697A696E6720626F617264204C45442070696E7300C04619
:20321C004572726F7220696E697469616C697A696E6720627574746F6E2070696E7300C007
:20323C004572726F72207265676973746572696E6720627574746F6E2063616C6C62616307
:20325C006B2066756E6374696F6E00C0192601004D550100012014210DF1160204F050F915
:20327C004B4904F13802102006F00AFF207818F081FB48490246102006F002FF207818F084
:20329C0079FB45490246102006F0FAFE4349102006F0F6FE781D12F0F7FB207818F06AFB76
:2032BC000095034604223E490195102006F0E8FE08E0C04605450100491C0629FFF4E1AD77
:2032DC0014F0B4FE1BB0BDE8F08FC046EDAC010061890000A5C3010001C8010052656769E9
:2032FC0073746572656420736572766963652C20256420617474726962757465732C20731F
:20331C0074617475732030782530327800C046C0526567697374657265642073657276697C
:20333C0063652C202564206174747269627574657300C046526567697374657265642063D6
:20335C00616C6C6261636B7320746F206170706C69636174696F6E2E20537472756374206A
:20337C00257000C007B901002C1702003483002058890020DC110200693F0120F0870020AF
:20339C0084110200B4860020B0110200480F020015CB0100FDD501105DD601106D38010056
:2033BC00219800002DE9F843040014D1002019F083FC10E0204614F067FC012808D065E053
:2033DC008A0740F1578101F0FD0101700020B071204614F059F804F16605687D002855D049
:2033FC00697CDFF8C094022904F1EC0704F59E7804F5B07604F5C67035D0042949D00529B8
:20341C005ED0062900F08C800729D3D0092900F0EF800B2900F0C4800C2900F00B810D2984
:20343C0000F0D3800E2900F0ED800F2900F02B81102900F04581112900F05F81122900F0A1
:20345C001181142900F08A81162900F05D81172900F07881FC2919D0FD2900F09881FE29EC
:20347C0000F0A281A2E7297C012909D199F80300002815D01621204619F07FF8012006E026
:20349C00204613F061FE2874E88A28830020BDE8F283297C012940F0A28199F80200002878
:2034BC0000F0E8800021A9712046FC2117F0A0F9A07904F1B80204F1B0011AF075FF8AE7DD
:2034DC00297C01290FD199F8020020B184F89410002038607860B87A012869D106212046EB
:2034FC0017F086F977E704F1E7063078012809D1204617F062F80128C8D10020B87201204B
:20351C002874C3E770780028C0D004F1C70204F1A00104F1D7001AF043FF012030705AE73B
:20353C00297C012940F05F8199F8020000283FD0618CE183204613F0A7FF01202870204647
:20355C0016F006FB0120A871397A787C012900F010000FD148B1002088F80500D8F80010DF
:20357C0098F80600490812F0EBFFA07900211AF013FF0FE048B1D8F80020DFF82C0304F52F
:20359C00A173520821461AF0F5FAA079012200211AF0FEFE002038723873F872B8721AE7D4
:2035BC00287C012805D1F97A012908BFFC2196D060E0204612F05CFF0128A2D10020F8723C
:2035DC0084F894000120287405E7297C012940F00E8199F80200002809D0002184F89410B3
:2035FC0001202870204616F0B3FA0120A87188E0297C012940F0FF8099F80200D0B3618CBA
:20361C00E183E5E6287C012840F0F980387C022804F1FD0204D1A17900201AF0B5FED7E68E
:20363C00032840F0F580A1791A201AF0ADFE00203874CDE6287C012804F20D1140F0F38092
:20365C000B78012B04F5897240F0F3804878012807D15388009300201388CA78A1791AF0B8
:20367C008FFEB5E6297C012940F0F28099F802000028F6D1298B481E288380B200287FF481
:20369C0005AF2221F7E6287C012840F0E58098F80910012902D130780F281BE098F80800C0
:2036BC00012826D1002188F80810288D000900901A20AA8CEB8CA17952081AF05DFE87E69A
:2036DC00287C012840F0CC8098F80910012910D1307810281CBF002019F0EEFA002088F865
:2036FC000900288D00090090AA8CEB8CA1797078E2E7287F0028E2D1BCE7297C012940F0BB
:20371C00B38099F80300F5E7297C012940F0B080017B4A061DD4CA0709D501F0FE010173EB
:20373C000023A179707800220EF0B8FF50E68A0740F1A38001F0FD0101730023A179002294
:20375C001A20F1E7297C012940F0A480027B510690D5017B01F0BF01017339E6297C012950
:20377C0040F09A8001788A067FF52AAE01F0DF010A0701700AD501F0F7010170F08B0090F7
:20379C00738BB28B318BA0791AF032FE1EE6A97E204617F02DF815E7204617F029F8AEE6E8
:2037BC00002019F089FA71E6A97E0C2918BF0E29F2D00F2902D01429EED0F1E7FC2120465E
:2037DC0017F016F8B8F812000090B8F81030B8F80E20B8F80C10A0791AF012FE56E62046F7
:2037FC000FF085FE4FE6204614F0CAFB4BE6204616F012FB47E6204612F08AFA43E6204675
:20381C0012F050FA2874E88A2883012038743DE6288B401E288380B20028F8D1A17922205C
:20383C001AF0B2FD2DE701208870204611F0F4FE29E6288B401E288380B20028E7D1508878
:20385C00009022201388CA78A1791AF099FD18E7204614F0C5FE16E620460EF037FD12E62B
:20387C0020460EF085FD0EE6204613F01FFB0AE6162120460EF085FB05E6288B401E28831D
:20389C0080B20028C3D1A1790023002222200EF005FFF6E61721ECE71421204610F0EFFE0C
:2038BC00F1E500BF5C3D0120C15501002DE9F84FDFF85C44A178FF2904BF002019F0FCF990
:2038DC00A07819F08BFE044604F1680504F5C9762968086804F1900708B100200EE0A97BC6
:2038FC00002904BFA87E002809D13978002901BF30780028217F012901D1608CE083218999
:20391C00E08B4118491C6181204618F007FD01281EBFDFF800040178012904D120890022EA
:20393C00401CE2836081A87E01280CD1AA8B618920891AF01DFD30B121896289481C824213
:20395C002AD0AA8B1FE0387801280CD17A88618920891AF00DFD30B121896289481C824220
:20397C001AD07A880FE03078012815D17288618920891AF0FDFC00281FBF2189481C62890A
:20399C00824209D07288824206D0501E608180B21AF0EAFC401EE0833078012801BF71881E
:2039BC002089401C814207D172793271002030701346A1790EF072FE04F59A71087920B1C6
:2039DC0020890021401CE183608104F12E07A87E012801BFA88B2189491C884238D1608131
:2039FC0004F18601204618F08DFEA88C6189608400202077E083E0894118A181A88B218959
:203A1C001AF0B2FC8046B988288C6A8C01FB0808E88C8A4204BF3989884202BFA98CFB880D
:203A3C00994207D000090090AB8CA179520800201AF0A2FCA87F3870688CB880A88CF88005
:203A5C00E88C3881204619F053F90220A87601E0B7F80480E28BDFF8C092501C00FB08F118
:203A7C0040F6C41808FB01F000902368D3F80CC06044DFF8A8C2D860DCF800E0A8489EF81B
:203A9C0000A003884FEA9A1ABAF1030F13D199F80FC05FEACC7E48BF00230CD45B1C9BB290
:203ABC00012B11BFB4F812C004F59A7CBCF806C00CF2DC5C01E0B4F812C00CFB01FC4FF40B
:203ADC00C87EBCFBFEFC0CF1010CC4F814C00380A16184F820204FF01C0BDFF848A2A379B5
:203AFC00DAF8000000F108021BFB03F3D1582268116100F10801A379D26860691BFB03F387
:203B1C00121ACA50DAF80000A37900F108021BFB03F3D1582268916000F10C02A1791BFB7B
:203B3C0001F10C30525C02F0F00242F002024254DAF80000A279811C1BFB02F2002088524F
:203B5C00307908B919F0B8F8DAF80000A27900F1100130791BFB02F240088854A079DAF875
:203B7C0000101BFB00F00844002141743079042814D1A079DAF800101BFB00F001F1100232
:203B9C00337A125C103142EA83020A54A179DAF800001BFB01F1084420214174DAF8000096
:203BBC00A27900F112011BFB02F2002088525E49A0790A6802F114034FEA401C143253F864
:203BDC000C00A379D4F814C05B0100EB4C00D050A87E02280CD10A68A57902F114036D0119
:203BFC0014325859A3793D785B0118FB0500D05099F80F00C20758D5DAF80000A57900F1D6
:203C1C0008031BFB05F508305A59A3791BFB03F3A2F5A862C250DAF80000A57900F10803BB
:203C3C001BFB05F55A5923689A600098121A1A610868A57900F114036D0114305A59A379CA
:203C5C005B0102F5F662C250307904280BD10868A57900F114036D0114305A59A3795B0167
:203C7C0002F5B062C2500868A37900F114025B01D058C4F834012D4A0B68106BA679006819
:203C9C0003F11C05BB8808FB03F37601181AA0F51670A851264B1D78012D21D10868A1794A
:203CBC0000EB41100122C27221E030790A68A57904280CBF4FF44B604FF4E66002F11403A3
:203CDC006D015A59101ABA8808FB02F2A2F516729042D0D30821204618F04FFC012015E0B8
:203CFC00906A0968A279407801EB4211C872A179DAF800000F4A1BFB01FB216858444860CD
:203D1C0007201070204616F0A5F90020BDE8F28F683E0120783F01205C3D0120083F0120CF
:203D3C009EAC002068AC00206CAC0020B01A0200733F01206F3F012001465348B0B58068F4
:203D5C0004686FF00E02ADF1300D0846801A07D0083803D0001F18BF4CA003D155A000E034
:203D7C0063A0E16C19F0A4F92078A0B1401E0CD0401E04D0401E14D16AA56CA713E06068BC
:203D9C00694619F07BF96BA50AE0606804A919F068F96AA504E0606808A919F055F968A532
:203DBC00876807B967A76AA000212A4619F080F9636873A029463A4619F07AF9A26877A0A3
:203DDC00294619F075F9E2687AA0294619F070F92169226B7DA019F06BF96169626B82A042
:203DFC0019F066F9A169A26B86A019F061F9E169E26B8BA019F05CF9216A226C8FA019F02E
:203E1C0057F9616A626C94A019F052F9A16AA26C99A019F04DF9E16AE26C9FA019F048F952
:203E3C00216DA5A019F044F9CB4CD4F8041DA6A019F03EF994F8281DA7A019F039F994F8E4
:203E5C00291DA9A019F034F9B4F82A1DAAA019F02FF9D4F82C1DACA019F02AF9D4F8301D6D
:203E7C00ADA019F025F9D4F8341DAFA019F020F9D4F8381DB0A019F01BF9D4F83C1DB2A01F
:203E9C0019F016F90CB0B0BDCC8A0020426F67757320457863657074696F6E2072657475A0
:203EBC00726E2076616C75653A20253038782E0A00C046C0457863657074696F6E206F63CB
:203EDC0063757272656420696E206261636B67726F756E642074687265616420617420500D
:203EFC0043203D203078253038782E0A00C046C0457863657074696F6E206F6363757272DE
:203F1C00656420696E2049535220746872656164206174205043203D203078253038782E1F
:203F3C000A00C0464D61696E00C046C06D61696E282900C05461736B00C046C053776900C8
:203F5C004877690028756E6E616D65642900C046436F72652025643A204578636570746980
:203F7C006F6E206F6363757272656420696E20546872656164547970655F25732E0A00C0D1
:203F9C002573206E616D653A2025732C2068616E646C653A20307825782E0A002573207300
:203FBC007461636B20626173653A20307825782E0A00C046257320737461636B2073697A66
:203FDC00653A20307825782E0A00C0465230203D203078253038782020523820203D203040
:203FFC0078253038780A00C05231203D203078253038782020523920203D20307825303814
:20401C00780A00C05232203D203078253038782020523130203D203078253038780A00C0AD
:20403C005233203D203078253038782020523131203D203078253038780A00C05234203DEA
:20405C00203078253038782020523132203D203078253038780A00C05235203D20307825BD
:20407C00303878202053502852313329203D203078253038780A00C05236203D2030782594
:20409C0030387820204C522852313429203D203078253038780A00C05237203D2030782577
:2040BC00303878202050432852313529203D203078253038780A00C0505352203D2030781A
:2040DC00253038780A00C04649435352203D203078253038780A00C04D4D465352203D2088
:2040FC003078253032780A0042465352203D203078253032780A00C055465352203D2030EB
:20411C0078253034780A00C048465352203D203078253038780A00C044465352203D20303D
:20413C0078253038780A00C04D4D4152203D203078253038780A00C042464152203D203033
:20415C0078253038780A00C041465352203D203078253038780A00C000E000E02DE9F047CF
:20417C000546BC4CDFF8F882A87862780FF2F429ADF1480D002800F0AA80DFF8E0A2401F7A
:20419C004CD0401E20D0401E00F05D81083800F05581801E40F05A81A888ADF838006889C0
:2041BC0060B9ADF83E00A889ADF84000E988ADF83A102F89ADF83C70012000E00020A64958
:2041DC008DF842000EAA3AE100200090044601944FF4806101220294A7A3039448460494B6
:2041FC000AF0A0FA5146102005F04AFF00902046019440F20141029001220390A4A30490E8
:20421C0048460AF08FFAA888044618F0F3FC182800F01C81204611F037FC17E110205146DA
:20423C0005F02EFF697800270091012201909CA3029740F2E6310397484604970AF072FAA9
:20425C006878002834D16B8904F5F47E082138464FF6FF7CAEF1340636F8342F944504D058
:20427C00491E00F13400F7D10CE033807044B849009341F27072001D012314F04FFC012021
:20429C0086F82900281D04F1B7020621132311F071FA3E4604F1B70000904FF47C71019618
:2042BC00012202968BA30396484604960AF03AFA1020514605F0E4FE082880F0C7803B4604
:2042DC00009362784146102005F0DAFEBEE06878002840F0BB80EF79EA7A8DF831702B7A29
:2042FC008DF8372000268DF83230A9798DF834600CA88DF83360AF7A01706A7A8DF8367009
:20431C00944F8DF8352013230621026840683A6004F1A4027860A81D11F02CFA04F1A400C3
:20433C00009040F2B73101960122029673A30396484604960AF0F6F98749ACC905A8ACC047
:20435C000EC9671C80E80E0005AB10208349844A009705F095FEC0B230B101208DF844009B
:20437C009DF844000028FBD104F584703146202210F08EFE04F5847704F1200530462A5C18
:20439C00401CC0B241190B78092B18BF082B01D11F2A04DB1218D0B22028F0DB04E0491C16
:2043BC00521E38460EF056FB00970196484640F2C7310296012203965BA304960AF0B2F92D
:2043DC0007200090674F0195627833463946102005F056FEC0B230B101208DF845009DF8A0
:2043FC0045000028FBD11620009004F1F2050195627839460123102005F042FEC0B230B1EB
:20441C0001208DF846009DF846000028FBD1564962781020922305F033FE3346009362785B
:20443C004146102005F02CFEC0B278B101208DF847009DF847000028FBD107E04B49102087
:20445C0005F01EFE02E0284609F000FD12B0BDE8F087C046C8760020F524011049AF011074
:20447C0049130100247B496E70757446696C654E616D657D00C046C044657669636520441C
:20449C006973636F6E6E65637465642100C046C04E756D20436F6E6E733A20256400C04650
:2044BC004C696E6B2065737461626C697368206576656E742C207374617475732030782554
:2044DC003032782E204E756D20436F6E6E733A20256400C0436F6E6E65637465642E205073
:2044FC0065657220616464726573733A201B5B33326D25731B5B306D00C046C04741502053
:20451C00697320737461727465642E204F757220616464726573733A201B5B33326D2573C8
:20453C001B5B306D00C046C04E616D6520696E2061647665727444617461206172726179AF
:20455C003A201B5B33336D25731B5B306D00C04631D101009F8200202C0F0200FD9E0000CF
:20457C00F5CB0100B5EF0000858B0100A1A101002DE9F04F0D46680689B029D5DFF83823E7
:20459C00107800210DF052FC040021D0CB4908688047064619F0D0FA012804D019F04CF961
:2045BC006168884203D140F2024019F0D9FE00202072201D12F0AAFCC1490A6830469047C4
:2045DC00204618F08BFFFF224321204613F0E0FFE8070BD519F030F928B100218160B9481D
:2045FC00006800B1804785F0010061E1A80710D5002006900021049000230290009005912D
:20461C000393019101223C2019F0A6FE85F002004EE11E266807DFF8B08240F1A280002055
:20463C0007908346A948007800210DF0FFFBA84904468878FF2804BF002018F03DFBA07ADE
:20465C0018F0CCFF0746606D807A97F82E91022818BF032807F5947A06D108F10D0019F0ED
:20467C0077FE08B908F1070B5146484619F06CFE90B3606D807C002818BF012804D14146B5
:20469C00504617F0EDF804E052464946404612F029F9FF2840D016FB00F6B14608EB090690
:2046BC0006225146F01D18F0DDFD18F8090040F00209F01D07900622606DC17A01F0010115
:2046DC0087F82E1106F1010A606D00F10C0107F5947018F0C7FD1FE05146484618F014FF28
:2046FC00D0B152464946404612F0FCF8FF2813D016FB00F608EB060404F10D0019F028FE3B
:20471C0040B904F10D0019F023FE002804BF607F012801D149F0020907F12C004B46017821
:20473C0006914189090905917A8C079904920122C088029140080390CDF804B0CDF800A061
:20475C000020B97919F008FED7F89C0161498842B8790CBF002101210FF0FAFD85F004004E
:20477C00A6E0280610D5002006900021049000230290009005910393019101223B2019F08F
:20479C00EBFD85F0800093E0E80448D55248046808F1070108F10D0019F0D2FD2EE0207A17
:2047BC0001282AD1616D4878C10626D5A07B012818BF042821D104F13E000178022918BF82
:2047DC0003291AD1417804F13802404612F08AF8FF2812D0704308EB000707F10D0019F0F0
:2047FC00B7FD50B9F91D07F10D0019F0A9FD0622F91D04F1380018F035FD2468002CCED11A
:20481C0036484268364800784FF4805115F090F810B18E2010F07EFB85F4805048E0A805B7
:20483C0005D519F035F92F4901200860FEE7690504D50BF08CFD85F4806039E0680405D5E2
:20485C00812010F067FB85F4804031E0A8042ED5254C206810B1002018F02EFA4FF0FF30C8
:20487C00206011F0D1FD214C216851F8202F684690471F48016B426B2468009101926B46D9
:20489C001C491D4A0291039290F83810C06A8DF81010ADF812002668184A19491948B04708
:2048BC001949086006F04AF985F4005000E0002009B0BDE8F08F00BFA9AC002008010020D6
:2048DC000C010020203F0120009D0020AAAC0020683E0120CD76010078AC0020783E0120B6
:2048FC006E3F01207C052043043F0120F03E01208C8A002035D8010045D8010034AA0020D7
:20491C00048D002088390120EC3E01202DE9F84FDFF830830F460646F80B80F06781CA4DA3
:20493C00C74CDFF83C932878B90F80F0F080B90880F0E380DFF818A3DFF830B3F90A80F007
:20495C00B980B90B80F0A480DFF80083790B50D2380C40D23809C0F06C8117F029F9002825
:20497C0034D055464446032128682170783019F030FA0CF0FBFFB748007818B92868403094
:20499C0019F045FA022016F021F911200BF012FE2868007C10B90E200BF00CFEAE490878B6
:2049BC0020B100200870052016F010F9AB4819F063F800224846B0F91410B0F91600227019
:2049DC00814214BF022007200FF038F927F0080712F0A2FC2DE14846416889684E88002EAC
:2049FC00FAD04168896849880129F5D027F40047EEE720B1042016F0E9F80020287016F0A6
:204A1C00FFF80146002001B10120002540B1B0696FF480712A464FF0007384463046E0473D
:204A3C00904891492A4619F0E0F9B168404602220B880270A3F602035BB141F21E001B1A5E
:204A5C0007D00A8B4FF61F60104040F43470088306E00A8A4FF61F60104040F43470088267
:204A7C00757420685C462668006B80475246804912680B68934214BF01222A1C26B1801B76
:204A9C0001EB8201000B886027F4805725609FE7404619F0B8F9011C09D0486838B14A681A
:204ABC00C868B1F92C10202314460022A04727F40057BEE019F093F98046484619F0A3F980
:204ADC00061C14D05546286810B1783019F081F92068F168006B296080475C462060654832
:204AFC0018F0CAFF64484FF4006119F098F9404619F04EF927F480679BE008F057FC4846B3
:204B1C00103019F080F908B927F0020791E05B4A116841F08001116020B1042016F056F8DB
:204B3C000020287019F05BF9B16880460888A0F602055DB141F21E002D1A07D00A8B4FF6E1
:204B5C001F60104040F43470088306E00A8A4FF61F60104040F434700882494D286808B336
:204B7C00606D0068014604208847D8B120682C68006B8047F168001B728AF060F068000BB0
:204B9C00F060F0688018F060F068884203D240184008F060F06840F6C41181422CBFB0F5CC
:204BBC00FA7FF160404619F0F3F816F029F890B1B0696FF4807100224FF00073044630462C
:204BDC00A047484619F01FF9002808BF47F0020701D012F0A1FB706900214FF0806304461F
:204BFC000A463046A04727F0005722E019F0F7F80146404619F007F9061C15D0356AA80858
:204C1C0012D225EA05003062084619F0C1F8706868B165B17168B6F92CC0F06800232A4678
:204C3C008E466146F04702E0084619F0B1F827F480471FB11048394619F0F1F8BDE8F88F1D
:204C5C008C010010C4AB0020CAAA002094AC0020B4AA0020C8AA0020C9AA002065DD000033
:204C7C00BCAB002030AB00201DB50000BCAA0020C8A10020F9C60000A8A90020CC21084050
:204C9C00B8AA00202DE9F04782B0040004BF002018F012F804F1500541F623002E68308014
:204CBC000020708019F048FB00F57A60B0608220307302207073B0682061207EB0730020D9
:204CDC00F0736868017D022904BF002017F0F4FF6868007D012802D10020002104E08328E6
:204CFC000CBF062002202021307406F1580700207174708238714FF000086868817A89000F
:204D1C0001F00401397104F13000B066607DC10638D506F130003062686841788A060BD539
:204D3C00617D01F0FE016175407810F0030F03D1E07F00F0FE00E077607D15F09BFA0246B2
:204D5C00A275521C307CC0F38001002392B200F0030014F087FDA083A08BE17D00F5C87017
:204D7C0011FB00F1A083618389B2B06800EB810000F5806030660220F871E07F40F00800C7
:204D9C00E07714E0C6F82080607D40F00100607569684A78510744BF40F002006075607D99
:204DBC0015F068FAA075C6F8608087F80780A07D217D60F3050106F188002175017004F128
:204DDC002409617D417006F1280A032181706968897A890001F0040141F0030181706A6872
:204DFC00D37A80F80380DB0003F0080319438170C6F89080B9F81C00C0F30B00A9F81C0013
:204E1C006968CA7D40EA0230A9F81C002046617D01F0FE010DF0BAFE40F61200B083A6F843
:204E3C001E80C6F824808AF80080607DC1064CBF002002208AF80100E07DAAF80200AAF83D
:204E5C000A8041F62400AAF80800618BB06800EB8100B063002182208AF8140002208AF827
:204E7C00150094F821008AF8171000F03F008AF816006868807D012818BF022803D100F029
:204E9C007F00401E04E083280CBF0620022020218AF819108AF81800AAF81A80C6F86C800B
:204EBC006868417811F0030F23D016F0FDFDF0664C4881690978D0F818C0CA07826912780C
:204EDC004CBF10210021930783699CF800001B784CBF202200225B074CBF40230023000743
:204EFC004CBF8020002011431943014341F00F01397687F819806868807C00F00300787622
:204F1C0069688A7A920002F00402104378766968CA7AD20002F0080242F01002104378766D
:204F3C00E07F15F0A7F984F8200020460BF076FAE07FC1061DD594F8202099F81F109AF8AE
:204F5C0018008A18521CC0F380010023D2B200F0030014F087FC00F5C870A9F80000B9F839
:204F7C000010B06B00EB810000F580607067022002E0C6F874800020F87604F13000C6F8AB
:204F9C00800006F1840069684A78530705D50C310160787E40F0200004E013490160787EB8
:204FBC0000F0DF007876A17F94F8200060F30501A17740F60B00AAF82400AAF8268002206A
:204FDC00C6F85480787087F8008094F84500788068684178880744BF012078800020BDE87A
:204FFC00F68700BFB01A0200D03701202DE9F04F0F46C34C0168616241688068ADF1140D30
:20501C00E060C048A1608047BF48616A0160A168DFF814934160E168DFF808838160BB4979
:20503C00002FA246C16070D03D68E8788DF8080028798DF8090002A819F07AF9A86808B12C
:20505C00B3490160E86808B1B2490160B24C2878207068786070A878BE68A0703178E17044
:20507C007368636072696261B168A160F168E160316921612E697B68E6621868A0616869F4
:20509C002063A8696063287F84F838002A6AE263786886681EB9002017F00EFE00E0266229
:2050BC007868C06818B9002017F006FE00E060627868006918B9002017F0FEFD00E0A06210
:2050DC007868406818B9002017F0F6FD00E0E0612869E062F86881680E6806B9904E8F4919
:2050FC004FF0010B4E60C66881F801B026B9002017F0E2FDF86801E041460E6000684D462D
:20511C00FE68A8617068E86105E0002017F0D4FD4FF0010B4D46D8F80000844944686A1C59
:20513C0005F114035020A04718B1D8F8000080688047DAF80800804703907D487E4C28615B
:20515C0000272771B946E7707A4EA770700BC6B2401CC1B226703846617028E0304639469B
:20517C006A46042316F03AF8009BA078B3F5801F0ED043B9B9F1000F03D0484613F094FF80
:20519C00A078B14610E0304613F08EFFA0780BE0002804BF301CA67006D013F085FF3046CB
:2051BC0013F082FFA77038466178761CF6B2B142D4DA98B9B9F1000F08D1207817F008F983
:2051DC000420E08020793946A0B912E084F8029016F094F8484609F01FFB07E0B9F1000FEB
:2051FC0002D0484613F060FF16F088F82079394600B95946081C02D1384617F05DFD3C4683
:20521C004E4ED8F80000B4608069AC60804770604B48478080F800B0142018F015FBFF2178
:20523C001422A86218F00DFEE81CFF21022218F008FE142018F008FB4249086008681422D1
:20525C00394618F0FEFD3846FBF7DCFD584614F0D5FF3D480188FF2906D1022101807822A6
:20527C00001D394618F0EDFD032019F05DF8042019F056F8052019F04FF8062019F048F8A4
:20529C00072011F073FE314E0820307006F1340019F03AF83178062015F01AFD12F09EFD24
:2052BC002A3605200A21324616F06CFC38B13846C0F10901401C06F8011B0A28F8DBD8F8CF
:2052DC000070234909200DF10A0201AB7E68087010202146B047A86AEA690A270A309DF8A6
:2052FC000A1000F8011BDAF80C107F1EF7D1921E0398EA61884704F0A5F905B0BDE8F08F41
:20531C000001002001700010F83401204C0302006DBA0100C1D101008C8A0020A88D0020EB
:20533C005B420100688E0020908B002081C3010021D2010000A0030078AA002030AC002048
:20535C00C47600208CAC00207488002064840020ADAC00202DE9F047074682B078780C46D4
:20537C0001071ED4D7F80310DFF8200321F07F41203981423FBFD7F8061021F07F41203941
:20539C00814228BF112031D2B81DF91C884263D3B87A002818BF012803D0022818BF0328D0
:2053BC005AD1B87C002818BF012803D0022818BF032851D1387D012818BF022803D08328CC
:2053DC0018BF032848D1787A10F00700787243D0387801210CF02AFD48B916F0B7FD0446A6
:2053FC0018F025FD844214BF07200D204BE100F128060021F7624172017A012908BF0C206A
:20541C00F4D00022C27500217A7A01238B401A4208D0C27D521CC275D2B2012A04BF01F1D3
:20543C0025020276491C0329EEDB05467878DFF86092DFF86082C10640F18880397D0129BA
:20545C000AD11028944C34D0122830D0132804D0152804D01D2828D0A6E000202AE00420CE
:20547C00A873B87A022818BF032825D1F97A07F10C0201F00101204611F034FAFF281BD08E
:20549C001E21484304EB000A0AF10D0018F060FF90B90AF107010AF10D0018F051FF0120F1
:2054BC00F07506220AF107010BE00120D8E7022000E00320A87308E0F87AF075062207F156
:2054DC000C0105F1380017F0CDFEB87A002818BF012809D1B075B87AC10758BFC14606220A
:2054FC00494605F130002EE004F10D0018F030FFB0B1B87AC10754BF4146494618F004F80C
:20551C00002851D0B87AC10754BF41464946062205F1300017F0A6FEB87A00F0010006E001
:20553C000622E11D05F1300017F09CFE0320B075B87A00F001002070B97AC80758BFC14647
:20555C0006224946601C17F08DFE99E0FF20A873B87AC10758BFC1460622494605F13000C2
:20557C0017F080FEB87AB075062207F10C0105F1380017F077FEF87AF075387D02281EBFC9
:20559C00797801F0030003280ED00A070CD408B1880609D4480709D517F10C0004D0F87A65
:2055BC00002818BF012801D012206CE000206875E877787810F0030F27D1287D00F03F002E
:2055DC0028757878810605D4316B002904BF706B002801D018216975787881060DD4387D42
:2055FC00832818BF032804D1182068750120E87703E0687D40F0010068757878410717D57E
:20561C00E87F40F00200E87712E0297DC0074CBF0120022001F03F0141EA801118206875C7
:20563C0029750920E8777878410744BF0B21E977787841061CD597F913007F2808D01749B7
:20565C00486B4269164910680A7802EB4202805C3070687DC10604D5E87F40F04000E8770F
:20567C0002E040F04000687534B196F9000002E014B16FF07F002070287D00F0C000A877E2
:20569C00012169720020BDE8F68700BFE0FFFF00343E01202C3E0120009D0020B01A02006B
:2056BC00713F01202DE9F04F09AFADF13C0D08900A92388809911E46ADF81800101C08BF67
:2056DC00002000F08981002700F101094FF0FF3A4FF0010BB84671E1252940F06881107870
:2056FC00521C0A922D2818BFADF8068005D15846551CADF8060010780A9530281CBFC44639
:20571C00424605D10A990878DC466246491C0A912A28CDF80080554617D13068CDF808A003
:20573C000A99CDF810C0C01C4B1C20F00300001D306050F8044C0A93002C0878009419D5AF
:20575C00ADF806B06442009414E044460AE00A9B610001EBC4014018A0F13004591C009453
:20577C0018780A91302801DB3A28F0DBCDF808A0CDF810C02E282BD10A9908782A2801F1C6
:20579C0001010A9111D13068CDF80880C01C20F00300001D306050F8045C002D48BF454686
:2057BC0008782B46491C0A9111E0434645460AE0690001EBC50140180A99A0F13005087891
:2057DC002B46491C0A91302801DB3A28F0DB02930AB1224604926C2804D04C2818BFADF835
:2057FC00048005D10A990878ADF804B0491C0A910BA9CDF80C800FAB07916428059300F04C
:20581C008C80692800F08980BDF818C0752873D078286FD06F286BD0702850D063283DD068
:20583C0073281ED009980A990128A1F101010A9115D96D490C68B5F1FF3F03D0A84288BF27
:20585C006D1C00D8099D029508A80AA932466B46A0473F180A99039801F1010975E04046AF
:20587C002AE030680A99C01C20F00300001D306050F8040CBCF1000F01F10109014608B913
:20589C0057A00146079117F0D1FE0390B5F1FF3F5CD0A842C4BF281C039057E03068C01CAE
:2058BC0020F00300001D306010F8040C5D468DF82C000A990395584601F1010946E008207D
:2058DC0035680490E81C20F00300001D306050F8041C082210230FA810F09EF8411E0791AE
:2058FC00402400F8014C0A99079801F1010929E0082302E0102300E00A230A99306801F122
:20591C000109C01C20F00300001D306050F8041CAA42BCBF2A1C049210E00A99306801F1FD
:20593C000109C01C20F00300001D306050F8041CAA42BCBF2A1C04926FF009030FA810F0D8
:20595C006BF80790059D281A0390009CBDF80650211A241A00915DB906E008A8202109AA69
:20597C0016F016FA009C7F1C641E0094F5D503980546401E039075B9BDF80600F0B10098E5
:20599C00401E00901AD408A8202109AA16F000FA00987F1CF4E707990846491C07910178F9
:2059BC0009AA08A816F0F4F903987F1CE0E708A809AA16F0EDF97F1C09F101094A460A9858
:2059DC0012F8011C401C00290A907FF485AE089808B14146017038460FB0BDE8F08FC04607
:2059FC00286E756C6C2900C0481A02002DE9F04F0F460446B949BA48DFF8C0B20D68D0F8DD
:205A1C0000A098461646ADF16C0D29465046189149092ED3A74909688C46410903D2BCF872
:205A3C000010490925D3A4490B6823B14FF6EF721A4015D000E0082215421AD0002B1ABF88
:205A5C004FF6EF7119400821084209D1002B1ABF4FF6EF7018400820BCF80010084208D0D1
:205A7C0056EA070205D15846008800218B2213F05BFD9C4A924813880168DBB1294219D0F8
:205A9C0011EA0A0F04D18B4800680088014211D08C4B58461D682368028800930197029648
:205ABC00CDF80C8000230493059306938E4B18682346A847B8F1FF3F0BD0B8F1000F08D08B
:205ADC00814910AB07A8424616F0A4FA07A9022001E00021032013918DF850007B4D169765
:205AFC00286817960019199018F0C2F8EFF311891290202080F3118832463946204616F0FC
:205B1C0031FF031C40F0CA80189CB8F1000F04BF89F31188002000F0CA80600955464FF0BF
:205B3C0000085AD363480668680902D23088400925D36748036823B14FF6EF771F4014D0E1
:205B5C0000E008273C421AD0002B1ABF4FF6EF7018400820054208D1002B1ABF4FF6EF70C2
:205B7C00184008203188084209D018F027F8022805D0584600884146C42213F0D5FC6009B7
:205B9C002BD36909304602D20188490925D351490F6827B14FF6EF763E4014D000E0082659
:205BBC0034421AD0002F1ABF4FF6EF71394008210D4208D1002F1ABF4FF6EF7139400821A3
:205BDC000088014209D017F081F930B9584600884146CB223B4613F0A7FC17F0DDFE189A46
:205BFC000446284651092CD332490968430902D20B885B0925D3384B1B6823B14FF6EF77F8
:205C1C001F4014D000E008273A421AD0002B1ABF4FF6EF721A400822104208D1002B1ABF53
:205C3C004FF6EF70184008200988084209D0199817F00EFF28B9584600884146D12213F027
:205C5C0073FC129910A88861199810A917F0ECFF12980DF019F99DF85000022802D11398CB
:205C7C0010F03EFD89F31188204616F0E7F92020EFF3118380F31188139818B118F0FBF83B
:205C9C00CDF84C801298C0F8188083F311889DF85000002814BF159B434607E0139818B1DA
:205CBC0018F0E9F80020139089F3118818461BB0BDE8F08FFC180200E01802008A1A020004
:205CDC00EC18020004190200A9BC0100E8180200D4180200E4180200D8180200F81802002B
:205CFC00F41802008C1A0200081902002DE9F043DFF88892A24C99F80000A24DDFF8888226
:205D1C00A24FA349020083B04FF4A05600F03381072800F09080092818BF0A2800F0CE80D1
:205D3C000B2818BF0C2800F0FB800D2800F0FF80112844D1974A107800210CF077F8C5F8FA
:205D5C000080426D5378016DDB065CD50B4641F20448B3F802C0A7F800C0C4451CBF41F2FA
:205D7C000A48C4455FD0BCF1020F47D94FF4806EBCEB0E0C24D0ACF1040CBCF1010F26D950
:205D9C004FF47F7EBCEB0E0C26D04FF4406EBCEB0E0C15D0ACF1020CBCF1010F10D9BCF15B
:205DBC00040C0DD0ACF10107012F10D940F2F93EB7EB0E0722D07F1E16D0F91E0CD0D2E0E2
:205DDC00807B012818BF042816D03E8014E001214173714828606AE0807B012812BF5E80B4
:205DFC0041F20241598007E05078C2064CBF886AC86E0168002008716848EBE7002016F0E4
:205E1C005BFF8320B3E0498E398040F20442891A01290AD94FF48052891A04D0C91E012981
:205E3C0003D9C91E03D15E48D4E70121417341F206403880E0E75B488178FF291FD01C2091
:205E5C0041435948594BC5F800800068821C525A3A8040F20447D21B012A10D94FF47F77FD
:205E7C00D21B15D00A3A012A17D940F6F637D21B032A84BF521F012A11D9921E012A7AD961
:205E9C0040F2FD37D21B0AD0521E012A05D908E0801C41F20142425201E0801C46522B6012
:205EBC0005E0002016F008FF852018F09DFA207803B0BDE8F04301210AF090BE4A883A8057
:205EDC0040F20443D21A56D040F6FC73D21A15D0083A50D04FF47F73D21A23D1344C354A2F
:205EFC002568354800680023CDE9002355F8086F324B0222B047324908803CE0092811D18A
:205F1C0030490A68508968B12F49087811F0EAFA0021002018F0F4F9002089F800002AE0CA
:205F3C0048883880002016F0C7FE85201FE04888388002280DD940F20442801A1BD040F663
:205F5C00FC72801A05D0083815D04FF47F72801AE8D1887B801CC0B2B528A8BF66208873C6
:205F7C000020488007E0002016F0A6FE8420BDE8FE4318F039BABDE8F78300BF6F3F01203A
:205F9C006E3F0120203F012095DD0100503F012068AB0020A9AC0020A5A701106D7D000085
:205FBC00ED210000683E012068AC00204D790000F03E012002000080EC3E012095930100B1
:205FDC00423F012074AC0020713F0120B3480278112A00D070472DE9F84FB14B18780021B1
:205FFC000BF024FF04000CD1002016F065FE002016F062FEBDE8F24FFF2018F0F5B9BDE817
:20601C00F18F04F14805287908B90121E172401CE96828714978CA063BD5A868816801F5F5
:20603C00C8718160E27D297991420CD2817B491C8173EA68537A5B0803F0010383F0010333
:20605C0059188173DBE7DAD1E9684A781107D6D5217E817300202871217B491C2173A8698A
:20607C0040790028CBD0C9B28142C8D140F2024018F076F900202072201D10F047FF20462B
:20609C0017F02CFA2046BDE8F84FFF22432112F07FBAE27DAE68C3B2934211D2B07B401C7C
:2060BC00B073E9684A7A520802F0010282F001021018B073A18BB06800EB8100B0609EE738
:2060DC0006F15A0906F1900806F1880704F1420A4FF0000B4CD1A07F3870E17F7970EA682B
:2060FC00527893070CD5E27FD30604D5C01E387001F0EF017970C6F874B089F819B07EE74B
:20611C0090060BD4BAF8040008B19AF80100F870BAF8040000B12868C8F80000E8684178C4
:20613C00C80710D5BAF8040000281CBF2868002809D0C8F800009AF80010BAF8040081426A
:20615C0038BF0846F870E07FC106D4D5B06BA18C00EB810000F580607067022089F819008B
:20617C002046E17FBDE8F44F01F0FC010CF00EBDCB0710D538787978801E01F0F7018A0730
:20619C005CBF801D41F0020179703870C8F800B087F803B033E7801A8907C0B244D50128CC
:2061BC002FD1A07F00F03F00A0773870E07F7870E07FC10614D5B06BE18C00EB8100B06359
:2061DC00A18C00EB810000F580607067022089F819002046E17F01F0FC010CF0D7FC03E03C
:2061FC00C6F874B089F819B0BAF8040008B19AF80100F870BAF8040000B12868C8F8000036
:20621C00FDE6022804BF9AF80310A9F80010B16BA28C01EB8201B1639AF80310491C081A43
:20623C00C0B2012816DD0BE0B16BA28C01EB8201B1639AF80310081AE17FCA06C0B209D5B5
:20625C00B16BA28C01EB820101F580617167022189F819100028D3D0D8F800109AF801208F
:20627C0011440128C8F80010CAD1E07FA57F00F0EF08404613F0FEFF05F0C00500F03F0040
:20629C0005433D7087F8018008F0FC0120460CF07DFC9AF80200F8702DE700BF6F3F01207F
:2062BC00A9AC00202DE9F04FDFF890B2804609AFFF2089461D46ADF1240D3E793C8807902F
:2062DC00002799F800000592022806D1D9F80400008842F6021181426DD0484611F042FADF
:2062FC0059A3069008B3401E0ED038460090019040F225210290032203904CA3049046A02F
:20631C0008F010FA0A2083E060A00090CDF804804FF408710295012203943FA0049608F07B
:20633C0001FA594614200E1D0FE05AA00090CDF8048040F2122102950122039436A0049660
:20635C0008F0F0F9594628208E1CA04215DD05EB040A50450BDBD9F80C0005992A4620183F
:20637C000CF078FBA6F800A00698079013E038464FF40C7149A30D2704E0384640F22B21EE
:20639C004FA3072700900190029003900322049021A008F0C7F90798FF280AD0DBF80800CE
:2063BC0038B106682EB10699059B64194046A2B2B04738462CE0FE2E0CBF4AA650A6484609
:2063DC0011F0D0F900904FF4FC71CDF80480012202964EA3039710A0049708F0A3F9009495
:2063FC00059A40462B46494610F010FC594608310F68061C0BD157B1786840B1484611F09B
:20641C00B1F97C68059B01462A464046A047F0B209B0BDE8F08FC046247B496E7075744694
:20643C00696C654E616D657D00C046C041747472696275746520776173206E6F7420666FBD
:20645C00756E642E00C046C05772697465417474724342203A20257320636F6E6E48616EC3
:20647C00646C6528256429206C656E28256429206F666673657428256429206D6574686FFA
:20649C0064283078253032782900C04653747265616D00C0537472696E6700C0496E76618D
:2064BC006C69642076616C7565206C656E677468207761732072656365697665642E00C0E8
:2064DC00416E20696E76616C6964206F666673657420776173207265717565737465642EB8
:2064FC0000C046C02D20726573746F72696E6720626F6E64656420737461746500C046C0FD
:20651C002D204F5441207772697465005772697465417474724342202843434344293A20E0
:20653C00706172616D3A20256420636F6E6E48616E646C653A20256420257300B48600203C
:20655C002DE9F04F054690480E460168DFF840A2DFF8408295488D4F0088ADF14C0DC0B1EF
:20657C003868014215D050460068014204D140460068008801420CD088486B8904680093C9
:20659C0000220196844B02921A88894B18682B46A0473C68B6F1FF3F09D046B180490CAB9C
:2065BC0003A8324615F036FD03A9022001E0002103200F917F4F8DF8400038684FF0200B34
:2065DC00EFF31189401911908BF31188DFF8D4C16F89002F40F09180002E04BF89F3118838
:2065FC00002000F0CD8050460568002760095AD340460668680902D23088400925D360468A
:20661C00036823B14FF6EF721A4014D000E0082214421AD0002B1ABF4FF6EF7018400820C9
:20663C00054208D1002B1ABF4FF6EF70184008203188084209D017F0C1FA022805D05648BB
:20665C0000883946CA2212F06FFF60092BD36909304602D20188490925D353490E6826B1DC
:20667C004FF6EF73334014D000E008231C421AD0002E1ABF4FF6EF71314008210D4208D13F
:20669C00002E1ABF4FF6EF71314008210088014209D016F01BFC30B93F4800883946D1226D
:2066BC00334612F041FF17F077F9044617F0E0FA0E900CA981610CF0E7FB11980CA917F0E9
:2066DC00B3FA9DF84000022802D10F9810F008F889F31188204615F0B1FCEFF311838BF357
:2066FC0011880F9810B117F0C6FB0F970E98876183F311889DF8400042E050460068610913
:20671C0032D341460968420902D20A8852092BD36246136823B14FF6EF771F4014D000E091
:20673C0008273C4220D0002B1ABF4FF6EF721A400822104208D1002B1ABF4FF6EF70184047
:20675C000820098808420FD076B117F037FA02280AD017F033FA032806D00F4800880021A3
:20677C0040F2211212F0E0FE6889401E68810F9818B117F080FB00200F9089F31188012099
:20679C0013B0BDE8F08FC046201902002C19020028190200301902008E1A020038190200E3
:2067BC0001BD01000C19020018190200901A02003C1902001C1902002DE9FE4F924E776848
:2067DC001FB9BDE8F74F17F097BD3878DFF83CB28F4C904D01281CBF0228042841F64C591C
:2067FC0005D0402818BF802800F0818005E117F0A3F90028FAD0387806F028FC824617F0BC
:20681C0019F980466878002845D000F05FFC16F0E5FE0190B8F1000F016800914F6813D056
:20683C0050460FF0ABFA02280ED09AF800100129DCD120B917F080FD4844C8F808000120AF
:20685C00B0701120207050E000980178802910D10822714822700178012902D0687801287D
:20687C0002DD7869012111E0DBF82810786909780CE007202070684801787869012902D112
:20689C000122C27203E0DBF828104978C17201988179A97064E0BAF1000FA7D09AF80000F0
:2068BC00574509D1012803D1B8F1000F1DD1A9E0002016F001FA18E0012897D1B8F1000FB8
:2068DC00F5D017F039FD0146D8F8080001F5C241A83117F00DFD20B917F02EFD4844C8F841
:2068FC000800112020700120B070504681E06878002865D000F0EAFB16F070FE8246DAF85B
:20691C00000001904768A87816F068FE029017F019F910F0070F28D0B07806F097FB009096
